:1000000000000320850A0000CD0A0000D10A00008C
:10001000C90A0000C90A0000C90A00000000000067
:10002000000000000000000000000000313000006F
:10003000C90A00000000000031280000A1280000CB
:10004000E10A0000E50A0000E90A0000ED0A0000EC
:10005000F10A0000F50A0000F90A0000FD0A00009C
:10006000010B0000050B0000090B00000D0B000048
:10007000110B0000150B0000190B00001D0B0000F8
:10008000210B0000C90A0000C90A0000C90A0000CB
:10009000C90A0000C90A0000C90A0000C90A000014
:1000A000250B0000290B00002D0B0000310B000078
:1000B000350B0000390B00003D0B0000410B000028
:1000C000450B0000490B00004D0B0000510B0000D8
:1000D000550B0000590B00005D0B0000C90A000021
:1000E000C90A0000C90A0000C90A0000C90A0000C4
:1000F000C90A0000C90A0000C90A0000C90A0000B4
:10010000292F0000C90A0000C90A0000C90A00001E
:10011000C90A0000C90A0000C90A0000C90A000093
:10012000C90A0000C90A0000C90A0000592D0000D0
:10013000C90A0000412D0000C90A0000C90A0000D8
:10014000C90A0000610B0000650B0000690B00008C
:100150006D0B0000710B0000C90A0000C90A000005
:10016000C90A0000C90A0000750B0000790B0000E5
:100170007D0B0000810B0000850B0000890B000047
:100180008D0B0000910B0000950B0000A5160000E0
:10019000C5160000E5160000C90A0000C90A0000E3
:1001A000C90A0000C90A0000C90A0000C90A000003
:1001B000C90A0000C90A0000C90A0000C90A0000F3
:1001C000C90A0000C90A0000C90A0000C90A0000E3
:1001D000C90A0000C90A0000C90A0000C90A0000D3
:1003F000C90A0000C90A0000C90A0000FFFFFFFF88
:10040000FFFFFFFFFFFFFFFFFFFFFFFFFEFFFFFFFD
:1004100010B5054C237833B9044B13B10448AFF33E
:1004200000800123237010BD7000FF1F000000003A
:100430001049000008B5064B1BB106480649AFF34A
:1004400000800648036813B1054B03B1984708BD07
:1004500000000000104900007400FF1F6C00FF1F27
:1004600000000000154B002B08BF134B9D46A3F561
:10047000803A00218B460F461348144A121A03F0A3
:1004800051F90F4B002B00D098470E4B002B00D09A
:1004900098470020002104000D000D48002802D0DC
:1004A0000C48AFF3008003F017F92000290002F098
:1004B00085FD03F0FDF800BF0000080000000320E8
:1004C00000000000000000007000FF1F0002FF1F7E
:1004D00000000000000000004BB942B9002908BF2D
:1004E000002802D04FF0FF31084600F03BB882B040
:1004F000EC462DE9005000F01DF8DDF804E002B0F4
:100500000CBC70472DE97043069E14461D4680467C
:10051000894600F029F804FB01F300FB0533A4FB36
:1005200000451D44B8EB040469EB0505C6E9004528
:10053000BDE870832DE97043069E144680468946C7
:100540001D4600F05DF900FB05F504FB0153A0FB1F
:1005500004451D44B8EB040469EB0505C6E90045F4
:10056000BDE87083704700BF00292DE9F00FC0F28D
:100570009F800024002BC0F29680154606460F4649
:10058000002B3ED18A4257D9B2FA82F34BB1C3F164
:10059000200201FA03F720FA02F29D40174300FA05
:1005A00003F6290CB7FBF1F2330C01FB127CA8B265
:1005B00043EA0C4700FB02F3BB4209D97F1902F161
:1005C000FF3C80F00181BB4240F2FE80023A2F44A2
:1005D000FF1AB7FBF1F3B6B201FB137146EA014112
:1005E00000FB03F0884208D9491903F1FF3780F076
:1005F000ED80884240F2EA80023B43EA0242002357
:1006000003E08B420AD900231A461046194614B15A
:10061000404261EB4101BDE8F00F7047B3FA83F847
:10062000B8F1000F40F084808B4202D3824200F286
:10063000DE8000230122E8E712B90123B3FBF2F5C3
:10064000B5FA85F2002A39D17F1B280C1FFA85FCE8
:100650000123B7FBF0F1320C00FB117742EA0747A8
:100660000CFB01F2BA4207D97F1901F1FF3802D21F
:10067000BA4200F2C1804146BF1AB7FBF0F2B6B2EF
:1006800000FB127046EA00400CFB02FC844507D9CF
:10069000401902F1FF3702D2844500F2AB803A469E
:1006A00042EA0142B1E7E443524263EB430364E7A9
:1006B000404261EB41014FF0FF345BE79540C2F1EE
:1006C000200327FA03F1280C26FA03F39740B1FB25
:1006D000F0F81F433B0C00FB18111FFA85FC43EA9E
:1006E00001410CFB08F38B4206FA02F608D94919BE
:1006F00008F1FF3279D28B4277D9A8F10208294458
:10070000C91AB1FBF0F3BFB200FB131147EA01476E
:100710000CFB03F2BA4207D97F1903F1FF3160D213
:10072000BA425ED9023B2F44BF1A43EA084390E71E
:10073000C8F1200203FA08FC25FA02F343EA0C0C84
:100740004FEA1C4921FA02F301FA08F720FA02F2F3
:10075000B3FBF9F1174309FB11333A0C1FFA8CFB79
:1007600042EA03430BFB01FA9A4505FA08F008D95F
:1007700013EB0C0301F1FF3235D29A4533D902391C
:100780006344CAEB0303B3FBF9F209FB1233BFB2B4
:1007900047EA03470BFB02F9B94508D917EB0C07E9
:1007A00002F1FF331BD2B94519D9023A674442EA34
:1007B0000145A5FB0001C9EB07078F424FF000037D
:1007C0000AD305D02A4620E7624601E73B4614E7F4
:1007D00006FA08F68642F5D26A1E002315E71A4685
:1007E000E5E70B46A0E71146CBE7904688E743468E
:1007F00042460AE7023A53E702392F443CE700BF7A
:100800002DE9F00F144605460E46002B43D18A42CF
:1008100053D9B2FA82F757B1C7F1200620FA06F68B
:1008200001FA07F302FA07F41E4300FA07F5210C58
:10083000B6FBF1F22B0C01FB1267A0B243EA0746AC
:1008400000FB02F3B34209D9361902F1FF3780F0F9
:10085000F680B34240F2F380023A2644F61AB6FB21
:10086000F1F3ADB201FB136145EA014100FB03F076
:10087000884208D9091903F1FF3680F0E2808842E6
:1008800040F2DF80023B43EA024200231046194651
:10089000BDE8F00F70478B424AD8B3FA83F6002EBA
:1008A0004DD18B4202D3824200F2D6800023012236
:1008B00010461946BDE8F00F704712B90124B4FB89
:1008C000F2F4B4FA84F2002A7CD1091B260CA7B2F8
:1008D0000123B1FBF6F02A0C06FB101142EA01419C
:1008E00007FB00F28A4207D9091900F1FF3C02D246
:1008F0008A4200F2C3806046891AB1FBF6F2ADB2BB
:1009000006FB121145EA014507FB02F7AF4208D981
:100910002C1902F1FF3180F09680A74240F29380BB
:10092000023A42EA004210461946BDE8F00F70470D
:1009300000231A4610461946BDE8F00F7047C6F16D
:10094000200522FA05F4B3401C434FEA144821FA6B
:1009500005F301FA06F720FA05F5B3FBF8FC2F437F
:1009600008FB1C333D0C1FFA84FA45EA03430AFBDB
:100970000CF9994502FA06FB04D91B190CF1FF3258
:100980006DD39446C9EB0303B3FBF8F508FB1533AD
:10099000BFB247EA03470AFB05F8B84504D93F1937
:1009A00005F1FF3361D31D4645EA0C4CACFB0B232C
:1009B000C8EB07079F424FF0000549D345D0624678
:1009C0002B4663E79440C2F1200321FA03FC260C76
:1009D00020FA03F301FA02F5BCFBF6F843EA05013D
:1009E0000B0C06FB18CCA7B243EA0C4C07FB08F330
:1009F000634500FA02F509D91CEB040C08F1FF323B
:100A00003AD2634538D9A8F10208A444C3EB0C0CD0
:100A1000BCFBF6F389B206FB13CC41EA0C4107FBA1
:100A200003F28A4207D9091903F1FF3022D28A4220
:100A300020D9023B2144891A43EA084349E73A4650
:100A40000CE733461FE70A466BE7B0409042B6D248
:100A50000CF1FF32002319E73346324616E7994579
:100A60008FD9ACF1020C23448CE7B8459BD9023DE9
:100A7000274499E70346DEE79046C7E7023821445A
:100A80003AE700BF72B60948094901600948804742
:100A900009490A4A0A4B9A42BEBF51F8040B42F870
:100AA000040BF8E762B607488047000008ED00E055
:100AB000000000007D290000384900000000FF1FF1
:100AC0007000FF1F65040000FFF7FEBF35480047B8
:100AD0003548004735480047354800473548004706
:100AE00035480047354800473548004735480047F6
:100AF00035480047354800473548004735480047E6
:100B000035480047354800473548004735480047D5
:100B100035480047354800473548004735480047C5
:100B200035480047354800473548004735480047B5
:100B300035480047354800473548004735480047A5
:100B40003548004735480047354800473548004795
:100B50003548004735480047354800473548004785
:100B60003548004735480047354800473548004775
:100B70003548004735480047354800473448004766
:100B80003348004732480047314800473048004763
:100B90003048004730480047304800473048004759
:100BA00030480047CD0A0000D10A00003130000073
:100BB00031280000A12800000517000019170000C7
:100BC0002D1700004117000055170000691700009D
:100BD0007D17000091170000A5170000B91700004D
:100BE000CD170000E1170000F517000009180000FC
:100BF0001D18000031180000C90A0000BD150000D2
:100C0000D9150000DD190000191A00004114000078
:100C100085140000C90A0000090F0000C90A00007D
:100C2000350F0000C90A0000610F0000C90A00006A
:100C30008D0F0000C90A0000551A0000B90F00000E
:100C4000C90A0000E50F0000C90A0000F515000000
:100C500061160000F10F0000C90A0000C90A000077
:100C6000C90A0000C90A000080B582B000AF01F0D7
:100C7000F9FB786004484FF4E13101227B6802F00F
:100C80002FFA0837BD4680BD00A0064080B400AFF3
:100C9000054B03F5825304334FF092721A60BD4640
:100CA0005DF8047B704700BF0070044080B483B0DF
:100CB00000AF7860034B7A681A600C37BD465DF868
:100CC000047B70473801FF1F80B584B000AF134A22
:100CD00007F10C031188927819809A70104A3B1D15
:100CE00092E8030083E80300FFF7D0FF00F01EF84E
:100CF00007F10C03002000211A4600F043FF0220F8
:100D00000021002201F0AAF83B1D184600F072FFF6
:100D1000044B054A1A601037BD4680BD8C38000070
:100D2000903800000000FF1F000E270780B582B03A
:100D300000AF084A3B4692E8030083E803003B46C5
:100D4000184601F053F90448FFF7B0FF0837BD46D5
:100D500080BD00BF9838000080F0FA0280B485B0F2
:100D600000AF78607B681B0C03F1804303F58E2392
:100D7000FB60FB68FA6811687A6892B2012000FA99
:100D800002F20A431A601437BD465DF8047B7047CF
:100D900080B485B000AFF860B9601346FB71FB68A2
:100DA000BA6853F8223023F4E062FB791B0203F4A3
:100DB000E06342EA0301FB68BA6843F82210143783
:100DC000BD465DF8047B704780B500AF0C48FFF767
:100DD000C5FF0C4810210322FFF7DAFF0948112153
:100DE0000322FFF7D5FF0849074B03F58053103363
:100DF0001B6823F0030201F5805310331A6080BD95
:100E00000A00381000A004400070044080B485B08F
:100E100000AFF860B9607A600CE0FB681B79DBB268
:100E2000DBB25BB2002BF8DABB685A1CBA601A78E6
:100E3000FB68DA717B685A1E7A60002BEDD114379B
:100E4000BD465DF8047B704780B586B000AFF860A2
:100E5000B9607A60BB68002B36D120484FF40F711F
:100E60001F4A204B00F014FEF86800F0C5FA7861C4
:100E70007B6903F00803002B02D040F2F13329E034
:100E80007B6903F00403002B02D040F2F23321E02F
:100E90007B6903F00203002B02D040F2F33319E028
:100EA0007B6903F00103002B02D04FF47D7311E046
:100EB000FB689B7DDBB2002BD6D0BB685A1CBA60A6
:100EC000FA68D279D2B21A707B685A1E7A60002B07
:100ED000EED1002318461837BD4680BDA03800006B
:100EE000F4480000B838000080B500AF034B1B6821
:100EF000034A126803481146984780BDF001FF1F5E
:100F0000D801FF1F00A0064080B500AFFFF7ECFF3F
:100F100080BD00BF80B500AF034B1B68034A526819
:100F200003481146984780BDF001FF1FD801FF1FFD
:100F300000B0064080B500AFFFF7ECFF80BD00BFFA
:100F400080B500AF034B1B68034A92680348114603
:100F5000984780BDF001FF1FD801FF1F00C0064069
:100F600080B500AFFFF7ECFF80BD00BF80B500AFDC
:100F7000034B1B68034AD26803481146984780BD5B
:100F8000F001FF1FD801FF1F00D0064080B500AF61
:100F9000FFF7ECFF80BD00BF80B500AF034B1B68BF
:100FA000034A126903481146984780BDF001FF1FAC
:100FB000D801FF1F00A00E4080B500AFFFF7ECFF87
:100FC00080BD00BF80B500AF034B1B68034A526968
:100FD00003481146984780BDF001FF1FD801FF1F4D
:100FE00000B00E4080B500AFFFF7ECFF80BD00BF42
:100FF00080B500AF094B1B68002B06D108484FF4A1
:10100000A961084A084B00F043FD084B1B68034ADE
:10101000126807481146984780BD00BFD001FF1FE6
:101020002439000074480000103B0000D401FF1F69
:1010300000100B4080B485B000AF78607B681B0C5B
:1010400003F1804303F58E23FB60FB68FA681168A7
:101050007A6892B2012000FA02F20A431A60143749
:10106000BD465DF8047B704780B584B000AF786002
:101070000623BB600023FB6009E00E4BFA6853F8BF
:1010800022207B689A4206D0FB680133FB60FA6835
:10109000BB689A42F1D3FA68BB689A4205D3064806
:1010A000A921064A064B00F0F3FCFB6818461037EE
:1010B000BD4680BD8C480000283B0000BC480000B5
:1010C000403B000080B588B000AFF860B9607A603E
:1010D000BB68002B05D1A348D421A34AA34B00F041
:1010E000D7FCBB681B68002B05D19E48D5219E4AC2
:1010F0009F4B00F0CDFCFA689E4B9A4220D0FA68D4
:101100009D4B9A421AD0FA689C4B9A4214D0FA68C6
:101110009B4B9A420ED0FA689A4B9A4208D0FA68D2
:10112000994B9A4201D101230BE04FF0FF3308E0C5
:10113000012306E0012304E0012302E0082300E08C
:101140000823BA689279934205DA8648D721864AFD
:101150008E4B00F09DFCFA68864B9A4220D0FA68CC
:10116000854B9A421AD0FA68844B9A4214D0FA6896
:10117000834B9A420ED0FA68824B9A4208D0FA68A2
:10118000814B9A4201D101230BE04FF0FF3308E07D
:10119000012306E0012304E0012302E0082300E02C
:1011A0000823BA68D279934205DA6E48D8216E4A8C
:1011B000774B00F06DFC0023FB8300237B7700233B
:1011C000BB61BB681B681B017A68B2FBF3F3FB834E
:1011D000FB8B002B01D10123FB8300237B617B6808
:1011E0005A00BB681B68B2FBF3F39AB2FB8B19463B
:1011F000C902CB1A5B019BB213447B827B685A0005
:10120000FB8B59017B8A0B44B2FBF3F37B61BB6818
:101210001A687B699A4204D2BB681B687A69D31A40
:1012200003E0BB681A687B69D31ABB61BB681A68A4
:10123000584BA3FB02135A0913465B001A44BB69BF
:101240009A4202D240F2F53387E0F868FFF70CFFCC
:101250000246514B53F822301846FFF7EBFEFB686D
:10126000DB78DBB223F00C03DAB2FB68DA70FB68E0
:101270001B78DBB223F01F03DAB2FB8B1B0A9BB295
:10128000DBB21343DAB2FB681A70FB8BDAB2FB688D
:101290005A70FB689B7ADBB223F01F03DAB27B8AB9
:1012A000DBB203F01F03DBB21343DAB2FB689A72BE
:1012B000FB689B78DBB223F013037B77BB681B7959
:1012C000002B07D0BB681A797B7F1343DBB243F056
:1012D00010037B77FB687A7F9A70FB681B78DBB220
:1012E00023F02003DAB2BB685B795B01DBB203F069
:1012F0002003DBB21343DAB2FB681A70BB689A7939
:10130000FB68DA74BB68DA79FB685A75FB681B7C8A
:10131000DBB263F07703DAB2FB681A74FB685B7CBC
:10132000DBB263F03F03DAB2FB685A74FB68DB7828
:101330007B77BB681B7A002B03D07B7F43F00803CD
:101340007B77BB685B7A002B03D07B7F43F0040381
:101350007B77FB687A7FDA70002318462037BD461A
:1013600080BD00BF283B0000D0480000903900003D
:101370005C3B000000A0064000B0064000C00640F4
:1013800000D0064000A00E4000B00E40743B0000AC
:10139000B43B00001F85EB51A448000080B582B02B
:1013A00000AF78607B68002B06D1104840F25D11D9
:1013B0000F4A104B00F06CFB7B684FF4E1321A606F
:1013C0007B6800221A717B6800225A717B680022B8
:1013D0009A717B680122DA717B6800221A727B683D
:1013E00000225A720837BD4680BD00BF283B00006E
:1013F000DC4800009039000080B485B000AF786010
:101400007B681B79DBB21A467B685B79DBB21B0217
:101410001343FB607B681B7BDBB21B04FA6813433E
:10142000FB607B689B7CDBB21B06FA681343FB60A6
:10143000FB6818461437BD465DF8047B704700BF53
:1014400080B500AF094B1B68002B06D1084840F25D
:101450001A41084A084B00F01BFB084B1B68034A63
:10146000126807481146984780BD00BFC001FF1FA2
:10147000043C00003C480000243C0000C801FF1F61
:1014800000F0024080B500AF094B5B68002B06D12D
:1014900008484FF48461084A084B00F0F9FA084BF9
:1014A0001B68034A526807481146984780BD00BF31
:1014B000C001FF1F043C000058480000383C0000F9
:1014C000CC01FF1F00F0024080B485B000AF78600F
:1014D0007B681B0C03F1804303F58E23FB60FB68E4
:1014E000FA6811687A6892B2012000FA02F20A439F
:1014F0001A601437BD465DF8047B704780B584B030
:1015000000AF78600023FB6006E00C4A7B689A42DB
:1015100005D0FB680133FB60FB68002BF5D0FB684E
:10152000002B05D006484821064A074B00F0B0FAC8
:10153000FB6818461037BD4680BD00BF00700340F1
:10154000903C000020480000A83C000080B582B01C
:1015500000AF786039603B68002B05D113484F21FC
:10156000134A144B00F094FA7868FFF7C7FF124B48
:101570001846FFF7A9FF7B681B6823F002027B680F
:101580001A603B681B78002B06D07B681B6823F031
:1015900001027B681A6005E07B681B6843F001026A
:1015A0007B681A600837BD4680BD00BF903C0000D4
:1015B00030480000D03C000017003C1080B500AF60
:1015C000034B1B680348194600F022F880BD00BF9A
:1015D000AC01FF1F0060064080B500AF034B5B68A5
:1015E0000348194600F014F880BD00BFAC01FF1F8E
:1015F0000070064080B500AF034B9B680348194656
:1016000000F006F880BD00BFAC01FF1F00600E4077
:1016100080B582B000AF786039607B68DB78DBB280
:1016200003F01003002B06D17B689B78DBB203F03C
:101630002003002B05D0084B1B6878683968984751
:1016400004E0064B1B68786839689847BFF34F8FF2
:101650000837BD4680BD00BFB801FF1FBC01FF1F9A
:1016600080B500AF094B1B68002B06D1084840F23B
:101670001F51084A084B00F00BFA084B1B68034A3D
:10168000126807481146984780BD00BFA401FF1F9C
:101690008C3D000008480000403F0000A801FF1FEB
:1016A0000040024080B500AF034B1B68034A12683C
:1016B00003481146984780BD9801FF1F9401FF1F02
:1016C00000000C4080B500AF034B1B68034A126852
:1016D00003481146984780BD9C01FF1F9401FF1FDE
:1016E00000000C4080B500AF034B1B68034A126832
:1016F00003481146984780BDA001FF1F9401FF1FBA
:1017000000000C4080B500AF024B1B68184600F08B
:1017100099F880BD5401FF1F80B500AF024B5B6894
:10172000184600F08FF880BD5401FF1F80B500AF50
:10173000024B9B68184600F085F880BD5401FF1FDE
:1017400080B500AF024BDB68184600F07BF880BD27
:101750005401FF1F80B500AF024B1B69184600F013
:1017600071F880BD5401FF1F80B500AF024B5B696B
:10177000184600F067F880BD5401FF1F80B500AF28
:10178000024B9B69184600F05DF880BD5401FF1FB5
:1017900080B500AF024BDB69184600F053F880BDFE
:1017A0005401FF1F80B500AF024B1B6A184600F0C2
:1017B00049F880BD5401FF1F80B500AF024B5B6A42
:1017C000184600F03FF880BD5401FF1F80B500AF00
:1017D000024B9B6A184600F035F880BD5401FF1F8C
:1017E00080B500AF024BDB6A184600F02BF880BDD5
:1017F0005401FF1F80B500AF024B1B6B184600F071
:1018000021F880BD5401FF1F80B500AF024B5B6B18
:10181000184600F017F880BD5401FF1F80B500AFD7
:10182000024B9B6B184600F00DF880BD5401FF1F62
:1018300080B500AF024BDB6B184600F003F880BDAB
:101840005401FF1F90B589B000AF78607B68002B12
:1018500006D1504840F23A314F4A504B00F018F947
:101860007B689B687A68127CDA777B68DB68002B80
:101870000DD17B681B68002B09D07B681C687B68D6
:101880005B687868194601220023A0477EE07B68E8
:101890009A687B681B7C5B01134403F58053183303
:1018A0001B687B617B689A687B681B7C5B011344C7
:1018B00003F5805318339B889BB203F08003002B01
:1018C0000CBF00230123FB747B68DB687A69D31AA1
:1018D0007B617B695B09FB60FB7C002B02D0FB68B2
:1018E000FB760EE0FB68002B04D0FB68DBB2013B0B
:1018F000DBB205E07B681B7DDBB2DBB2013BDBB218
:10190000FB76FA7E7B685B7CDBB25BB29A4212D1DB
:101910007B68DB7CDAB27B681B7DDBB252B25BB2E8
:101920009A4205D17B68DB7CDBB25BB2FB6113E0E2
:101930000023FB6110E0FA7E7B685B7CDBB25BB26C
:10194000D31AFB61FB69002B06DA7B681B7DDBB2D7
:101950005BB2FA691344FB61FA7E7B685A747B6858
:10196000DB7CDBB2DAB2FB69DBB2D31ADBB2DAB210
:101970007B68DA747B681B68002B07D07B681C6867
:101980007B685968FB69FA7C7868A0472437BD46B4
:1019900090BD00BF883F0000F84700005C40000099
:1019A00080B582B000AF78603960786800F084F864
:1019B0000346002B05D0074B1B68786839689847A9
:1019C00004E0054B1B687868396898470837BD46BE
:1019D00080BD00BF4C01FF1F5001FF1F80B500AF4D
:1019E000084B1B68002B06D1074840F25761074A95
:1019F000074B00F04DF8034B1B6806481946FFF7EC
:101A0000CFFF80BD4001FF1FA8410000B04700008C
:101A1000C841000000C0024080B500AF084B5B68C1
:101A2000002B06D1074840F25F61074A074B00F0E0
:101A30002FF8034B5B6806481946FFF7B1FF80BDDE
:101A40004001FF1FA8410000C8470000D841000026
:101A500000D0024080B500AF084B9B68002B06D138
:101A6000074840F26761074A074B00F011F8034B43
:101A70009B6806481946FFF793FF80BD4001FF1F92
:101A8000A8410000E0470000E841000000C00A4013
:101A900080B586B002AFF860B9607A603B607B6861
:101AA000009304483968FA68BB6801F05FFB00BE28
:101AB000FDE700BF2043000080B483B000AF786032
:101AC0007B681B68DB0FDBB218460C37BD465DF840
:101AD000047B704780B582B000AF03463960FB716C
:101AE0003B68002B06D1234840F2BD51224A234BCC
:101AF000FFF7CEFF224B224A5278D2B222F00202E6
:101B0000D2B25A701E4B1E4A1278D2B202F03B0279
:101B1000D2B262F07F02D2B21A70194B9B79DBB25B
:101B200003F01C03082BF8D1154B154A5279D2B299
:101B300022F04002D2B25A71114B9B79DBB203F012
:101B40002003002BF8D1386800F008FA0C4B0C4A3F
:101B50005279D2B242F04002D2B25A71084B9B790C
:101B6000DBB203F02003002BF8D00023184608371F
:101B7000BD4680BD604400008847000078440000F6
:101B80000040064080B582B000AF0B463A60024686
:101B9000FA71BB713B68002B06D1124840F25C61C0
:101BA000114A124BFFF774FFFB79184600F00EF94B
:101BB000BB7918463968FFF78DFF0D4B0C4A127838
:101BC000D2B202F03F02D2B21A70094B9B79DBB25B
:101BD00003F00C039B08032BF7D1002318460837AA
:101BE000BD4680BD604400009C4700007844000072
:101BF0000040064080B582B000AF7860094B7A683B
:101C0000526803F5825304331A607B681B781846C8
:101C100000F046FA7B685B78184600F02BFA08372C
:101C2000BD4680BD0070044080B582B000AF164B49
:101C30009B79DBB203F00C039B083B603B68032BF2
:101C40001AD801A252F823F0611C0000691C0000A0
:101C5000711C0000591C000000F07CF878600DE059
:101C600000F014F8786009E000F014FB786005E0FB
:101C700000F066FA786001E000237B607B6818461C
:101C80000837BD4680BD00BF0040064080B582B029
:101C900000AF194B5B78DBB203F00203002B06D1D7
:101CA000154B9B79DBB203F02003002B01D00023FE
:101CB0001DE000F011FB78607B68002B01D17B6890
:101CC00015E00D4BDB78DBB203F060035B09FB70C2
:101CD000094BDB78DBB2DB09BB70F978BA78074BCC
:101CE00049000A4433F812307A6802FB03F31846BD
:101CF0000837BD4680BD00BF004006405047000089
:101D000080B500AF064B1B78DBB203F00203002B5B
:101D100001D1002302E000F0BDFA0346184680BD61
:101D20000040064080B582B000AF00F0D5FA786080
:101D30007B68002B08D0FFF777FF0346DA087B6843
:101D40009A4201D37B6800E0002318460837BD465D
:101D500080BD00BF80B582B000AF184B9B79DBB26D
:101D600003F04003002B01D1002322E000F0CAFA67
:101D700078607B68002B06D1114840F27D21114A22
:101D8000114BFFF785FE0D4B1B79DBB203F01F03F0
:101D900001337A68B2FBF3F37B60084B5B79DBB20B
:101DA00003F01F0303F118027B6802FB03F37B605F
:101DB0007B6818460837BD4680BD00BF004006401E
:101DC000F0450000604700000846000080B485B080
:101DD00000AF0346FB71204B1B7BDBB203F0030219
:101DE000FB799A4202D00123FB7301E00023FB73CD
:101DF000194B194A127BD2B222F00302D1B2FA79FE
:101E000002F00302D2B20A43D2B21A73FB79002B5A
:101E10000DD1114B5B78DBB203F00403002B06D02D
:101E20000D4B9B79DBB203F00203002BF8D0FB7B58
:101E3000002B09D040F2DC53BB6000E000BFBB6860
:101E40005A1EBA60002BF9D1002318461437BD463C
:101E50005DF8047B704700BF0040064080B485B049
:101E600000AF13460246FA710A46BA717B713A4BCB
:101E70009B79DBB203F00C039B08FB60364B9B792C
:101E8000DBB203F00103FB72334B1B7ADBB203F0CE
:101E90000E035B08BB727A79BB7A9A422BD0FB7A2D
:101EA000012B18D1FB68012B06D02B4B1B78DBB222
:101EB00003F00203002B0ED0274B274A5278D2B2F0
:101EC00022F00102D2B25A70234B9B79DBB203F0AD
:101ED0000103002BF8D1204B1F4A127AD2B222F014
:101EE0002F02D1B27A795200D2B202F00E02D2B2EF
:101EF0000A43D2B21A72184B174A5278D2B222F061
:101F00000102D1B2BA7902F00102D2B20A43D2B2CE
:101F10005A70114B104A1278D2B222F00302D1B299
:101F2000FA790A43D2B21A70FB68012B04D0FB790C
:101F300003F00203002B07D0074B9B79DBB203F0C1
:101F40000102BB799A42F7D1002318461437BD46E7
:101F50005DF8047B704700BF0040064080B584B048
:101F600000AF78607B68002B06D11C4840F24731F7
:101F70001B4A1C4BFFF78CFD0023FB737B685B78CF
:101F800003F01F03DAB2FB7B1343FB73164BFA7BA0
:101F90001A71154B144A5279D2B222F01F02D1B2F3
:101FA0007A68927802F01F02D2B20A43D2B25A7112
:101FB0000D4B0D4A1279D1B27A6812780A43D2B227
:101FC00042F04002D2B21A71074B9B79DBB203F0A8
:101FD0004003002BF8D01037BD4680BDF04500000F
:101FE00074470000144600000040064080B584B0ED
:101FF00000AF78607B681B68184600F08BF90346D9
:10200000FB737B681B791948194600F07FF87B68E1
:1020100006331648194600F05FF8154B144A5278FB
:10202000D2B222F03C02D1B2FA7B1201D2B202F05B
:102030003002D2B20A43D1B27A6852790A43D2B29C
:102040005A707B685B79002B0DD0084B1B78DBB294
:10205000DBB25BB2002B06DA054B9B79DBB203F0F7
:102060000203002BF8D01037BD4680BD005006405B
:102070000040064080B483B000AF7860074B074A49
:10208000126822F440217A68920402F440220A4342
:102090001A600C37BD465DF8047B70470070044041
:1020A00080B483B000AF78600A490A4B03F58053CF
:1020B00004331B6823F440327B681B0403F4403371
:1020C0001A4301F5805304331A600C37BD465DF89E
:1020D000047B70470070044080B485B000AF786026
:1020E00039607B681B78FB73FB7B03F05F03FB733A
:1020F0003B681A78FB7B1343FB737B68FA7B1A708F
:102100001437BD465DF8047B704700BF80B485B0CE
:1021100000AF78600B46FB707B681B78FB73FB7B22
:1021200023F00F03FB73FA7BFB781343FB737B688D
:10213000FA7B1A701437BD465DF8047B704700BF08
:1021400080B582B000AF194B1B7BDBB203F00303F9
:10215000012B12D0012B02D3022B1CD01EE0144BFA
:102160001B68002B05D11348D421134A134BFFF7EA
:102170008FFC0F4B1B687B6012E0114B1B68002B20
:1021800005D10C48D9210C4A0E4BFFF781FC0C4BB2
:102190001B687B6004E00C4B7B6001E000237B60EC
:1021A0007B6818460837BD4680BD00BF004006402A
:1021B0003801FF1F9446000008470000AC460000AD
:1021C0003C01FF1FB8460000006CDC0280B582B005
:1021D00000AFFFF7B5FF78607B68002B01D17B680B
:1021E0004DE0294B1B78DBB203F03803DB08FB70B2
:1021F000FB787A6822FA03F37B60234B5B78DBB2CF
:1022000003F030031B09BB701F4B1B7BDBB203F0D9
:1022100003037B70BB78002B02D07B78002B02D0AD
:102220007B78022B2AD1FB78072B25D801A151F806
:1022300023F000BF55220000552200005522000067
:102240005522000055220000552200005D220000AA
:102250006B2200007B685B097B600FE07A680B4BA8
:10226000A3FB02131B097B6008E07A68084BA3FB01
:102270000213DB087B6001E000237B607B6818466B
:102280000837BD4680BD00BF00400640CDCCCCCC59
:10229000ABAAAAAA80B400AF0C4B9B79DBB203F0C7
:1022A0000103002B02D10A4B1B6809E0094B1A6895
:1022B000064B1B7ADBB203F00E035B0822FA03F332
:1022C0001846BD465DF8047B704700BF00400640DD
:1022D0000400FF1F0800FF1F80B500AF074B9B796C
:1022E000DBB203F010031B09002B03D1FFF76EFFD5
:1022F000034601E0024B1B68184680BD00400640C3
:102300000400FF1F80B500AFFFF71AFF0346184611
:1023100080BD00BF80B485B000AF78607A6849F6B0
:1023200097039A4202D80023FB7308E07A68074BB0
:102330009A4202D80123FB7301E00223FB73FB7B6B
:1023400018461437BD465DF8047B704700127A00CA
:1023500080B500AF0B4B1B78DBB2DBB25BB2002B5E
:102360000DDA094B1B68002B06D1084840F26511B5
:10237000074A084BFFF78CFB034B1B6800E0002368
:10238000184680BD005006403801FF1F94460000EB
:1023900020470000AC46000080B582B000AF184B6B
:1023A0001B6803F440239B0C022B0FD0032B1CD083
:1023B000002B1ED1FFF7CCFF0346B3F5004F02D12F
:1023C0004FF4004300E000237B6014E00D4B1B68DA
:1023D000002B06D10C4840F279110C4A0C4BFFF748
:1023E00057FB084B1B687B6005E04FF47A737B60FA
:1023F00001E000237B607B6818460837BD4680BD3E
:10240000007004403C01FF1F944600003847000064
:10241000B846000080B582B000AF104B03F5805382
:1024200004331B6803F440331B0C012B08D0012B31
:1024300002D3032B08D00AE0FFF728FC786008E0FD
:10244000FFF788FC786004E0054B7B6001E0002327
:102450007B607B6818460837BD4680BD007004402D
:10246000006CDC0280B500AFFFF7DEFB0246054BD7
:1024700003F5825304331B681B0F0133B2FBF3F3E4
:10248000184680BD0070044080B584B000AF03469C
:10249000FB71FB79132B00F28C8001A252F823F020
:1024A000F1240000F12400000D2500002D2500007E
:1024B0004D250000B32500006D25000075250000A6
:1024C0007D250000B3250000B32500008525000010
:1024D0008D250000952500009D250000B3250000F6
:1024E000B3250000B3250000A5250000AB250000A2
:1024F000FFF79AFB0246324B03F5825304331B6805
:102500001B0F0133B2FBF3F3FB6054E0FFF78CFBCE
:1025100002462B4B03F5825304331B6803F07063B0
:102520001B0E0133B2FBF3F3FB6044E0FFF77CFBCF
:102530000246234B03F5825304331B6803F47003F4
:102540001B0D0133B2FBF3F3FB6034E0FFF76CFBD0
:1025500002461B4B03F5825304331B6803F47023BC
:102560001B0C0133B2FBF3F3FB6024E0FFF752FFD7
:10257000F86020E0FFF710FFF8601CE0FFF7E8FECE
:10258000F86018E0FFF7CEFBF86014E0FFF7B8FB47
:10259000F86010E0FFF77AFBF8600CE0FFF7DAFB79
:1025A000F86008E0074BFB6005E04FF47A73FB60CE
:1025B00001E00023FB60FB6818461037BD4680BD74
:1025C00000700440006CDC0280B586B000AF0023D0
:1025D0007B614A4B1B68002B7ED1494B1B68013342
:1025E0003B61474B3A691A603B69002B1FD1454B51
:1025F0001B681B68002B09D04FF0500383F3118830
:10260000BFF36F8FBFF34F8F3B60FEE73D4B1B68FF
:10261000FB603D4B1A683B4B1A603B4BFA681A60F3
:102620003A4B1B685A1C394B1A6000F0D7F8384BEC
:102630001B683A699A4255D300E000BF314B1B68D2
:102640001B68002B01D1012300E00023002B04D0E4
:102650002F4B4FF0FF321A6044E02A4B1B68DB68B7
:10266000DB68BB60BB685B687B603A697B689A42E9
:1026700003D2274B7A681A6034E0BB6804331846EB
:1026800000F052F9BB689B6A002B04D0BB6818337A
:10269000184600F049F9BB68DB6A01229A401D4BDD
:1026A0001B681A431B4B1A60BB68DA6A13469B000F
:1026B00013449B00184A1A44BB6804331046194659
:1026C00000F00EF9BB68DA6A144B1B68DB6A9A42A9
:1026D000B3D301237B61B1E7114B1B685A1C104B2C
:1026E0001A6000E000BF0F4B1B68002B01D00123D4
:1026F0007B617B6918461837BD4680BD3401FF1FDA
:102700001C01FF1F1401FF1F1801FF1F2C01FF1FD9
:102710003001FF1F2001FF1FB000FF1FAC00FF1F93
:102720002401FF1F2801FF1F80B487B000AF264B94
:102730001B68002B03D0254B01221A603EE0234B7F
:1027400000221A60224B1B68FB60FB68B3FA83F31C
:10275000FB72FB7AC3F11F037B611E497A69134642
:102760009B0013449B000B441B68002B09D14FF0C6
:10277000500383F31188BFF36F8FBFF34F8F7B60DC
:10278000FEE77A6913469B0013449B00114A1344E9
:102790003B613B695B685A683B695A603B695A68B0
:1027A0003B6908339A4204D13B695B685A683B69CC
:1027B0005A603B695B68DA68074B1A601C37BD4694
:1027C0005DF8047B704700BF3401FF1F2801FF1F25
:1027D0002001FF1FB000FF1FAC00FF1F80B483B0BB
:1027E00000AF0E4B1B681B68002B01D1012300E0DA
:1027F0000023002B04D00A4B4FF0FF321A6008E090
:10280000064B1B68DB68DB687B607B685A68044B9F
:102810001A600C37BD465DF8047B70471401FF1F3A
:102820003001FF1F00000000000000000000000059
:10283000EFF30980BFF36F8F154B1A681EF0100F6E
:1028400008BF20ED108A20E9F04F10604DF8043DDC
:102850004FF0500080F31188BFF34F8FBFF36F8F9D
:10286000FFF762FF4FF0000080F3118808BC196881
:102870000868B0E8F04F1EF0100F08BFB0EC108AE7
:1028800080F30988BFF36F8F704700BFAFF30080FC
:10289000AC00FF1FAFF30080AFF30080AFF3008008
:1028A00080B582B000AF4FF0500383F31188BFF3BF
:1028B0006F8FBFF34F8F7B60FFF786FE0346002BC1
:1028C00003D0064B4FF080521A6000233B603B68F8
:1028D00083F311880837BD4680BD00BF04ED00E0DA
:1028E00080B485B000AF786039607B685B68FB605E
:1028F0003B68FA685A60FB689A683B689A60FB68B4
:102900009B683A685A60FB683A689A603B687A68E4
:102910001A617B681B685A1C7B681A601437BD46B5
:102920005DF8047B704700BF80B485B000AF78606D
:102930007B681B69FB607B685B687A6892689A6059
:102940007B689B687A6852685A60FB685A687B6843
:102950009A4203D17B689A68FB685A607B680022C0
:102960001A61FB681B685A1EFB681A60FB681B68CB
:1029700018461437BD465DF8047B704780B400AF3D
:102980000B4B0B4AD2F8882042F47002C3F888201F
:10299000084B4CF22052DA81064B4DF62812DA81B0
:1029A000044B4FF4E9721A80BD465DF8047B704712
:1029B00000ED00E00020054080B483B000AF034686
:1029C000FB71FB79002B02D0012B0DD018E00F49D1
:1029D0000E4B03F581531C331B6843F0006201F575
:1029E00081531C331A600BE00849084B03F58153EF
:1029F0001C331B6843F0006201F581531C331A60DD
:102A00000C37BD465DF8047B704700BF0070044082
:102A100080B483B000AF02460B46FA71BB71FB79FC
:102A2000002B02D0012B0AD012E00C4B0B4A91680C
:102A3000BA79920002F00C020A439A6008E0084B4F
:102A4000074A9168BA79920002F00C020A439A6030
:102A50000C37BD465DF8047B704700BF00B00340F3
:102A600000B00B4080B483B000AF02460B46FA7151
:102A7000BB71FB79002B02D0012B07D00CE0BA7997
:102A8000084B1B681A43074B1A6005E0BA79064BDE
:102A90001B681A43044B1A600C37BD465DF8047B73
:102AA000704700BF9C00FF1FA000FF1F80B483B0D1
:102AB00000AF02460B46FA71BB71FB79002B02D0C6
:102AC000012B09D010E00B4B0A4A516ABA7902F087
:102AD00003020A435A6207E0074B074A516ABA7970
:102AE00002F003020A435A620C37BD465DF8047BCC
:102AF000704700BF00B0034000B00B4080B483B00B
:102B000000AF02460B46FA71BB71FB79002B02D075
:102B1000012B14D026E0BB79002B06D1144B144AAC
:102B2000526A22F004025A621CE0BB79012B19D1CF
:102B30000F4B0F4A526A42F004025A6212E0BB790C
:102B4000002B06D10B4B0B4A526A22F004025A6248
:102B500008E0BB79012B05D1064B064A526A42F0C8
:102B600004025A620C37BD465DF8047B704700BF13
:102B700000B0034000B00B4080B483B000AF024609
:102B80000B46FA71BB71FB79002B02D0012B14D0DC
:102B900023E0BB79002B06D1124B1B6823F04002C7
:102BA000104B1A6019E0BB79012B16D10D4B1B6835
:102BB00043F040020B4B1A600FE0BB79002B03D1AE
:102BC000094B40221A6008E0BB79012B05D1064B66
:102BD0001B6843F04002044B1A600C37BD465DF899
:102BE000047B70479C00FF1FA000FF1F80B483B0D0
:102BF00000AF0346FB71FB79002B02D0012B0DD0F7
:102C000019E0104B104A12681A600E4B1B6803F053
:102C10008003002BF9D00B4B1B690CE00B4B0C4ACB
:102C200012685A60094B5B6803F08003002BF9D0EF
:102C3000064B5B69FFE718460C37BD465DF8047B21
:102C4000704700BF00B003409C00FF1F00B00B4066
:102C5000A000FF1F80B582B000AF78607B681B7852
:102C60001846FFF7A9FE7B681A787B685B781046E8
:102C70001946FFF7CDFE7B681A787B689B78104673
:102C80001946FFF7EFFE7B681A787B68DB78104601
:102C90001946FFF70BFF7B681A787B681B79104693
:102CA0001946FFF72BFF7B681A787B685B79104623
:102CB0001946FFF761FF0837BD4680BD80B400AFFD
:102CC0001149114B03F581530C331B6843F48052B7
:102CD00001F581530C331A600C4B0C4A92F82120F9
:102CE000D2B262F07F02D2B283F82120074B074AAA
:102CF00092F82120D2B242F04002D2B283F82120D1
:102D0000BD465DF8047B70470070044000C00C4075
:102D100080B483B000AF7860084B7A68D2B21A7082
:102D2000064B7A68120AD2B202F00F02D2B25A707F
:102D30000C37BD465DF8047B704700BF00C00C40F7
:102D400080B500AF034B01221A70022000F008F892
:102D500080BD00BFA400FF1F80B400AFFEE700BF2E
:102D600080B483B000AF0346FB71FB79032B23D8FB
:102D700001A252F823F000BF892D0000952D00001C
:102D8000A12D0000AD2D0000104B4FF0FF32C3F815
:102D9000A02016E00E4B4FF0FF32C3F8A02010E049
:102DA0000C4B4FF0FF32C3F8A0200AE00A4B4FF063
:102DB000FF32C3F8A02004E0084B4FF0FF32C3F805
:102DC000A0200C37BD465DF8047B7047009004409E
:102DD00000A0044000B0044000C0044000D0044003
:102DE00080B483B000AF0346FB71084B97F907200E
:102DF0005209F97901F01F01012000FA01F143F8AD
:102E000022100C37BD465DF8047B704700E100E0FE
:102E100080B582B000AF0346FB7197F9073013F11C
:102E2000800F04D097F907301846FFF7D9FF08370D
:102E3000BD4680BD80B582B000AF78607B68002B56
:102E400005D106488121064A064BFEF721FE7B6824
:102E500000221A700837BD4680BD00BFC84600007A
:102E6000E8460000E046000080B485B000AFF8609E
:102E70000B467A60FB72FB7AFA7AF96812010A440F
:102E800002F5847211687A680A43F9681B010B44E1
:102E900003F584731A601437BD465DF8047B7047F0
:102EA00080B485B000AFF8600B467A60FB72FB7AA5
:102EB000FA681B01134403F584737A685A60143767
:102EC000BD465DF8047B704780B485B000AFF86004
:102ED0000B467A60FB72FB7AFA6810331B011344CD
:102EE0007A681A601437BD465DF8047B704700BFEE
:102EF00080B483B000AF78600B46FB70FB78FA7843
:102F0000796812010A4402F58472126842F00102E3
:102F100079681B010B4403F584731A600C37BD46B6
:102F20005DF8047B704700BF80B500AF0448002106
:102F30000122FFF7B5FF034B01221A7080BD00BFCD
:102F400000700340A500FF1FB0B582B000AF3B1D6D
:102F50001846FFF76FFF3B1D16481946FEF7F6FAB5
:102F60000220FFF791FA03461A464FF000031D01B5
:102F700045EA12751401204629460F4A4FF0000316
:102F8000FDF7AAFA02460B4613460A4800211A46E4
:102F9000FFF79AFF074800210222FFF765FF302064
:102FA000FFF736FF03480021FFF7A2FF0837BD46B1
:102FB000B0BD00BF0070034040420F0080B500AFBD
:102FC000FDF702FFFDF780FEFDF74EFE1248FFF70A
:102FD00041FEFFF773FEFFF7B7FF104B1B78DBB224
:102FE000002BFAD000231846FFF700FE034607EE39
:102FF000103AF8EE477A0A4BC3ED007A084BD3ED4E
:10300000007AFCEEE77A17EE903A1846FFF780FE5A
:10301000024B00221A70E0E700470000A500FF1FE6
:10302000A800FF1F000000000000000000000000DA
:10303000074B19680868B0E8F04F80F30988BFF3C0
:103040006F8F4FF0000080F311887047AFF300805E
:10305000AC00FF1FAFF30080AFF30080AFF3008040
:1030600080B483B000AF78600B46FB70FB78002B18
:1030700008D07B68DB78DBB243F00803DAB27B6808
:10308000DA7007E07B68DB78DBB223F00803DAB2A2
:103090007B68DA700C37BD465DF8047B704700BF73
:1030A00080B483B000AF78600B46FB70FB78002BD8
:1030B00008D07B68DB78DBB243F00403DAB27B68CC
:1030C000DA7007E07B68DB78DBB223F00403DAB266
:1030D0007B68DA700C37BD465DF8047B704700BF33
:1030E00080B588B000AFF860B9603B601346FB71F3
:1030F0001B4B1B78002B01D001232DE0184BFA79D4
:103100001A70FB79012B26D1FA68154B5A6007F12A
:1031100014031846FEF742F9BB687B61104B5A68EE
:1031200007F11403104619463A68FDF7CBFF0C4B24
:103130005B6818460121FFF793FF094B5B6818464F
:103140000121FFF7ADFF064B064A9A60044B064A81
:10315000DA60002300E0042318462037BD4680BD16
:103160008C00FF1F0D0E0000490E00000FB480B54B
:1031700082B000AF0B4B1B78002B02D14FF0FF3316
:1031800009E007F114033B60074839693A6800F029
:10319000D3F878607B6818460837BD46BDE88040A4
:1031A00004B070478C00FF1FAD31000080B582B0C5
:1031B00000AF78600A4B1B78002B02D14FF0FF3331
:1031C00009E0074B9B68064A51683A1D08461146BC
:1031D00001229847012318460837BD4680BD00BF2D
:1031E0008C00FF1F80B586B000AFB9607A603B608D
:1031F0000346FB73BB687B610CE097F90F203B6AC9
:10320000104698473B681B685A1C3B681A607B69EC
:1032100001337B617A697B689A42EEDB1837BD46E1
:1032200080BD00BF80B48DB000AFF860B9607A6037
:103230003B600023FB61FB68BB61BB695A1CBA6140
:1032400000221A707B68002B35D0BB681B68FB62BC
:10325000FB6A002B2BD1BB6930221A70FB6901334A
:10326000FB61FB6962E0FA6A3B6892FBF3F37B6106
:103270007B693A6802FB03F3FA6AD31ABB62BB6A42
:10328000002B06DABB6A3B623B6AC3F13003BB62C8
:1032900002E0BB6A3033BB627B69FB62BB695A1CCC
:1032A000BA61BA6AD2B21A70FB690133FB61FB6A78
:1032B000002BD8D139E0BB681B687B627B6A002B8E
:1032C00030D1BB6930221A70FB690133FB61FB69A5
:1032D0002CE03B687A6AB2FBF3F33B613B683A69E6
:1032E00002FB03F37A6AD31A3B623B6A092B03D8C9
:1032F0003B6A30333B620AE097F83830002B01D04C
:10330000412300E061233A6A13440A3B3B623B6974
:103310007B62BB695A1CBA613A6AD2B21A70FB6905
:103320000133FB617B6A002BD3D1FB69184634372C
:10333000BD465DF8047B704780B59CB002AFF86075
:10334000B9607A6000233B660023FB650023BB6104
:10335000002387F84A3000233B61BB687B6691E11C
:103360007B6C252B06D0FB68786C9847BB690133D2
:10337000BB6184E1012387F84B3000237B65002388
:10338000BB651CE07B6E01337B667B6E1B785BB29A
:103390007B647B6C2F2B0DDD7B6C392B0ADC7A6D0B
:1033A00013469B0013445B001A467B6C1344303B6E
:1033B0007B6504E07B6E013B7B660123BB65BB6DD7
:1033C000002BDFD006233B657B6E01337B667B6E73
:1033D0001B785BB22E2B25D100233B650023BB65F8
:1033E0001CE07B6E01337B667B6E1B785BB27B647B
:1033F0007B6C2F2B0DDD7B6C392B0ADC3A6D134671
:103400009B0013445B001A467B6C1344303B3B65C6
:1034100004E07B6E013B7B660123BB65BB6D002B2B
:10342000DFD002E07B6E013B7B667B6E01337B6607
:103430007B6E1B785BB27B647B6C642B1BD07B6CDC
:10344000692B18D07B6C662B15D07B6C462B12D069
:103450007B6C782B0FD07B6C582B0CD07B6C6F2B3C
:1034600009D07B6C622B06D07B6C702B03D07B6CFD
:10347000752B40F0C3807B6C642B02D07B6C692B76
:1034800017D17B681A1D7A601B687B6107F11C02EB
:1034900007F1140397F84B100091104619460122CA
:1034A0000A23FFF7BFFEF86507F11C02FB6D13440A
:1034B0003B667B6C582B02D07B6C782B1DD17B6CD0
:1034C000782B02D1002387F84B307B681A1D7A6075
:1034D0001B683B6107F11C0207F1100397F84B10C2
:1034E00000911046194600221023FFF79BFEF86555
:1034F00007F11C02FB6D13443B667B6C6F2B08D0FD
:103500007B6C622B05D07B6C702B02D07B6C752B97
:1035100057D17B681A1D7A601B683B617B6C623BEC
:10352000132B3AD801A252F823F000BF85350000D2
:103530009B3500009B3500009B3500009B3500004B
:103540009B3500009B3500009B3500009B3500003B
:103550009B3500009B3500009B3500009B3500002B
:103560007D3500008D3500009B3500009B35000047
:103570009B3500009B35000095350000082387F837
:103580004A300AE0022387F84A3006E0102387F821
:103590004A3002E00A2387F84A3097F84A3007F1A8
:1035A0001C0107F1100297F84B00009008461146E5
:1035B0000022FFF737FEF86507F11C02FB6D13448C
:1035C0003B667A6D07F11803F96800912020F96DC8
:1035D000FFF708FE3B6E002B0BD150E03B6E5A1EEE
:1035E0003A661B785AB2FB6810469847BB690133AC
:1035F000BB613B6E1B78002BF0D140E07B6C632BF2
:103600000DD17B681A1D7A601B68DBB25BB23B642C
:10361000FB68386C9847BB690133BB612FE07B6C5A
:10362000732B26D17B681A1D7A601B68FB64FB6CC8
:10363000002B24D0F86C00F033F80346FB657A6D5C
:1036400007F11803F96800912020F96DFFF7CAFD12
:103650000AE0FB6C5A1CFA641B785AB2FB681046ED
:103660009847BB690133BB61FB6C1B78002BF0D121
:1036700005E0FB68786C9847BB690133BB617B6EE2
:1036800001337B667B6E1B785BB27B647B6C002BAB
:103690007FF466AEBB6918466837BD4680BD00BF83
:1036A000034613F8012B002AFBD1181A0138704782
:1036B00008B5074B044613B10021AFF30080054B5A
:1036C0001868836A03B19847204600F033F800BFBA
:1036D000000000000C49000070B50E4B0E4DED1AB5
:1036E000AD1000241E46AC4204D056F8242090476A
:1036F0000134F8E701F00CF9084D094BED1AAD1053
:1037000000241E46AC4204D056F8242090470134D1
:10371000F8E770BD3049000030490000344900002E
:103720003049000002440346934202D003F8011BD3
:10373000FAE77047FEE700BF68656C7000000000A4
:103740000D0A2268656C70223A204C6973747320EC
:10375000616C6C207468652072656769737465724A
:10376000656420636F6D6D616E64730D0A00000007
:1037700065786974000000000D0A2265786974227A
:103780003A20457869742070726F6772616D0D0A16
:10379000000000002E2E2F647269766572732F660A
:1037A000736C5F756172745F65646D612E63000098
:1037B00068616E646C65000068616E646C652D3EC6
:1037C000747845646D6148616E646C65000000004A
:1037D0007866657200000000786665722D3E64614F
:1037E00074610000786665722D3E6461746153698E
:1037F0007A65000068616E646C652D3E7278456480
:103800006D6148616E646C6500000000636F756EE9
:10381000740000002E2E2F647269766572732F6615
:10382000736C5F767265662E63000000696E737458
:10383000616E6365203C2046534C5F4645415455BC
:1038400052455F534F435F565245465F434F554E77
:1038500054000000636F6E66696720213D204E555D
:103860004C4C0000636F6E66696700002E2E2F645B
:103870007269766572732F66736C5F77646F672EFB
:1038800063000000030200000000040000131800A1
:10389000010200000000240180F0FA020000800014
:1038A0002E2E2F647269766572732F66736C5F7546
:1038B0006172742E63000000646174610000000096
:1038C00068616E646C65000072696E674275666659
:1038D00065720000786665720000000078666572A7
:1038E0002D3E6461746153697A6500007866657283
:1038F0002D3E646174610000636F756E740000009A
:103900002E2E2F647269766572732F66736C5F75E5
:103910006172745F65646D612E6300007061726135
:103920006D0000002E2E2F647269766572732F660B
:10393000736C5F736468632E630000006361706181
:1039400062696C6974790000737263436C6F636BB6
:103950005F487A20213D20305500000028627573B1
:10396000436C6F636B5F487A20213D2030552920DE
:1039700026262028627573436C6F636B5F487A203C
:103980003C3D20737263436C6F636B5F487A290020
:10399000636F6E6669670000636F6E6669672D3ED0
:1039A00064617461426C6F636B53697A65203C3D5E
:1039B0002028534448435F424C4B415454525F4289
:1039C0004C4B53495A455F4D41534B203E3E20538B
:1039D0004448435F424C4B415454525F424C4B531A
:1039E000495A455F5348494654290000636F6E6643
:1039F00069672D3E64617461426C6F636B436F75E0
:103A00006E74203C3D2028534448435F424C4B4158
:103A10005454525F424C4B434E545F4D41534B20E4
:103A20003E3E20534448435F424C4B415454525F06
:103A3000424C4B434E545F534849465429000000C2
:103A4000636F6E6669672D3E61636B54696D656F68
:103A50007574436F756E74203C3D20285344484371
:103A60005F4D4D43424F4F545F44544F4356414383
:103A70004B5F4D41534B203E3E20534448435F4DE6
:103A80004D43424F4F545F44544F435641434B5F65
:103A90005348494654290000636F6E6669672D3E9E
:103AA000626C6F636B436F756E74203C3D202853CE
:103AB0004448435F4D4D43424F4F545F424F4F5434
:103AC000424C4B434E545F4D41534B203E3E20539E
:103AD0004448435F4D4D43424F4F545F424F4F5414
:103AE000424C4B434E545F53484946542900000012
:103AF0007472616E736665720000000068616E64C6
:103B00006C65000063616C6C6261636B00000000B7
:103B1000735F7364686348616E646C655B305D00FD
:103B2000FFFFFFFFFFFFFFFF2E2E2F6472697665F8
:103B300072732F66736C5F756172742E6300000080
:103B4000696E7374616E6365203C207561727441A7
:103B500072726179436F756E74000000636F6E66F8
:103B600069672D3E62617564526174655F4270736E
:103B70000000000046534C5F464541545552455F96
:103B8000554152545F4649464F5F53495A456E2846
:103B90006261736529203E3D20636F6E6669672D03
:103BA0003E74784669666F57617465726D61726BB9
:103BB0000000000046534C5F464541545552455F56
:103BC000554152545F4649464F5F53495A456E2806
:103BD0006261736529203E3D20636F6E6669672DC3
:103BE0003E72784669666F57617465726D61726B7B
:103BF0000000000062617564526174655F42707319
:103C0000000000002E2E2F647269766572732F6695
:103C1000736C5F7361692E630000000068616E64FD
:103C20006C650000735F73616948616E646C655B0D
:103C3000305D5B305D000000735F73616948616EE9
:103C4000646C655B305D5B315D0000002E2E2F647F
:103C50007269766572732F66736C5F7064622E632F
:103C6000000000004E554C4C20213D20636F6E66D5
:103C7000696700006368616E6E656C203C2050448B
:103C8000425F494E54435F434F554E54000000007D
:103C90002E2E2F647269766572732F66736C5F7057
:103CA00069742E6300000000696E7374616E636551
:103CB000203C2046534C5F464541545552455F5386
:103CC0004F435F5049545F434F554E54000000002E
:103CD000636F6E66696700002E2E2F6472697665C9
:103CE00072732F66736C5F72636D2E630000000049
:103CF0002E2E2F647269766572732F66736C5F72F5
:103D000074632E63000000006461746574696D65FE
:103D100000000000001F1C1F1E1F1E1F1F1E1F1E55
:103D20001F000000000000001F003B005A00780048
:103D30009700B500D400F300110130014E010000DE
:103D4000616C61726D54696D650000002E2E2F64E8
:103D50007269766572732F66736C5F7361692E6327
:103D600000000000696E7374616E6365203C20463C
:103D7000534C5F464541545552455F534F435F494D
:103D800032535F434F554E54000000002E2E2F64D7
:103D90007269766572732F66736C5F666C657863A3
:103DA000616E2E6300000000636F6E66696700003D
:103DB0006D61736B496478203C3D202862617365B6
:103DC0002D3E4D435220262043414E5F4D43525FCE
:103DD0004D41584D425F4D41534B29006D6249643E
:103DE00078203C3D2028626173652D3E4D43522072
:103DF000262043414E5F4D43525F4D41584D425F37
:103E00004D41534B2900000021464C455843414E3B
:103E10005F49734D624F63637570696564286261C1
:103E200073652C206D624964782900002828636F2F
:103E30006E66696729207C7C202866616C7365202A
:103E40003D3D20656E61626C6529290028636F6EB7
:103E500066696729207C7C202866616C7365203D3B
:103E60003D20656E61626C6529000000636F6E66BF
:103E700069672D3E696446696C7465724E756D2084
:103E80003C3D203132380000282873657475705F1E
:103E90006D62202D203829202D202832202A2072E2
:103EA00066666E2929203E20300000007478467234
:103EB000616D650074784672616D652D3E6C656E4E
:103EC000677468203C3D203800000000727846721C
:103ED000616D650068616E646C650000786665728E
:103EE00000000000786665722D3E6D62496478209E
:103EF0003C3D2028626173652D3E4D4352202620B3
:103F000043414E5F4D43525F4D41584D425F4D41DD
:103F1000534B290021464C455843414E5F49734D50
:103F2000624F6363757069656428626173652C20F4
:103F3000786665722D3E6D62496478290000000044
:103F4000735F666C657863616E48616E646C655B17
:103F5000305D00002E2E2F647269766572732F66B5
:103F6000736C5F66746D2E6300000000696E73747D
:103F7000616E6365203C2066746D417272617943A5
:103F80006F756E74000000002E2E2F6472697665C6
:103F900072732F66736C5F65646D612E6300000041
:103FA0006368616E6E656C203C2046534C5F4645ED
:103FB00041545552455F45444D415F4D4F44554C2A
:103FC000455F4348414E4E454C00000074636420F9
:103FD000213D204E554C4C00282875696E743332B3
:103FE0005F74297463642026203078314655292077
:103FF0003D3D203000000000636F6E666967202140
:104000003D204E554C4C0000282875696E743332A3
:104010005F74296E6578745463642026203078318B
:10402000465529203D3D2030000000006C696E6B34
:1040300065644368616E6E656C203C2046534C5F3E
:10404000464541545552455F45444D415F4D4F44AF
:10405000554C455F4348414E4E454C0068616E6487
:104060006C6520213D204E554C4C00002828756978
:104070006E7433325F7429746364506F6F6C2026E2
:1040800020307831465529203D3D20300000000089
:104090007372634164647220213D204E554C4C0084
:1040A000646573744164647220213D204E554C4C0C
:1040B00000000000287372635769647468203D3DF6
:1040C00020315529207C7C202873726357696474E1
:1040D00068203D3D20325529207C7C202873726366
:1040E0005769647468203D3D20345529207C7C202C
:1040F000287372635769647468203D3D20313655DA
:1041000029207C7C20287372635769647468203D81
:104110003D20333255290000286465737457696463
:104120007468203D3D20315529207C7C2028646521
:1041300073745769647468203D3D20325529207C92
:104140007C2028646573745769647468203D3D2041
:10415000345529207C7C2028646573745769647405
:1041600068203D3D2031365529207C7C202864651F
:1041700073745769647468203D3D203332552900BB
:104180007472616E7366657242797465732025205E
:10419000627974657345616368526571756573749E
:1041A000203D3D20300000002E2E2F647269766580
:1041B00072732F66736C5F647370692E6300000006
:1041C00068616E646C650000675F64737069486164
:1041D0006E646C655B305D00675F64737069486135
:1041E0006E646C655B315D00675F64737069486124
:1041F0006E646C655B325D002E2E2F64726976658D
:1042000072732F66736C5F65646D612E68000000C9
:104210006368616E6E656C203C2046534C5F46457A
:1042200041545552455F45444D415F4D4F44554CB7
:10423000455F4348414E4E454C000000636F6E663B
:10424000696720213D204E554C4C00006368616E2B
:104250006E656C203C2046534C5F46454154555298
:10426000455F444D414D55585F4D4F44554C455F5A
:104270004348414E4E454C002E2E2F6472697665A0
:1042800072732F66736C5F647370695F65646D61D0
:104290002E63000065646D615278526567546F52F9
:1042A000784461746148616E646C650065646D6139
:1042B000547844617461546F496E7465726D6564BD
:1042C0006961727948616E646C65000065646D6156
:1042D000496E7465726D656469617279546F547862
:1042E00052656748616E646C650000007472616EAF
:1042F00073666572000000002E2E2F647269766569
:1043000072732F66736C5F636D742E630000000020
:104310006D6F64756C617465436F6E6669670000EC
:10432000415353455254204552524F52202220258A
:104330007320223A2066696C652022257322204C66
:10434000696E6520222564222066756E6374696F2C
:104350006E206E616D652022257322200A00000008
:104360002E2E2F647269766572732F66736C5F648C
:1043700061632E6300000000696E7374616E636593
:10438000203C2046534C5F464541545552455F53AF
:104390004F435F4441435F434F554E54000000007C
:1043A0004E554C4C20213D20636F6E6669670000BE
:1043B000696E646578203C204441435F4441544C1D
:1043C0005F434F554E5400002E2E2F647269766560
:1043D00072732F66736C5F646D616D75782E630008
:1043E000696E7374616E6365203C2046534C5F4672
:1043F0004541545552455F534F435F444D414D55E0
:10440000585F434F554E54002E2E2F6472697665C7
:1044100072732F66736C5F647370692E63000000A3
:10442000696E7374616E6365203C2046534C5F4631
:104430004541545552455F534F435F445350495F84
:10444000434F554E540000006D6173746572436FA5
:104450006E6669670000000066616C7365000000AD
:104460002E2E2F647269766572732F66736C5F638C
:104470006C6F636B2E630000636F6E66696700008C
:104480002E2E2F647269766572732F66736C5F636C
:104490006D702E6300000000696E7374616E636559
:1044A000203C2046534C5F464541545552455F538E
:1044B0004F435F434D505F434F554E540000000043
:1044C0004E554C4C20213D20636F6E66696700009D
:1044D0002E2E2F647269766572732F66736C5F631C
:1044E0006D742E680000000068696768436F756E20
:1044F00074203C3D20434D545F434748315F504852
:104500005F4D41534B00000068696768436F756EEB
:10451000740000006C6F77436F756E74203C3D2013
:10452000434D545F43474C315F504C5F4D41534BBB
:10453000000000006C6F77436F756E740000000020
:1045400068696768436F756E74203C3D20434D5425
:104550005F434748325F53485F4D41534B00000073
:104560006C6F77436F756E74203C3D20434D545FF4
:1045700043474C325F534C5F4D41534B00000000AA
:104580002E2E2F647269766572732F66736C5F636B
:104590006D742E6300000000696E7374616E636554
:1045A000203C2046534C5F464541545552455F538D
:1045B0004F435F434D545F434F554E54000000003E
:1045C000627573436C6F636B5F487A203E3D204396
:1045D0004D545F494E5445524D454449415445461A
:1045E00052455155454E43595F384D485A000000D9
:1045F0002E2E2F647269766572732F66736C5F63FB
:104600006C6F636B2E6300006D6367706C6C30635E
:104610006C6B0000636F6E6669670000546D7251C9
:10462000000000002E2E2F647269766572732F666B
:10463000736C5F61646331362E630000696E73745E
:10464000616E6365203C2046534C5F46454154559E
:1046500052455F534F435F41444331365F434F55AB
:104660004E5400004E554C4C20213D20636F6E6629
:10467000696700006368616E6E656C47726F757084
:10468000203C204144435F5343315F434F554E54D8
:10469000000000002E2E2F647269766572732F66FB
:1046A000736C5F636C6F636B2E630000675F78747D
:1046B000616C304672657100675F7874616C33328B
:1046C00046726571000000002E2E2F6472697665B7
:1046D00072732F66736C5F7069742E68000000003F
:1046E000636F6E66696700005049545F47657444A4
:1046F000656661756C74436F6E66696700000000E3
:104700000001010301010000434C4F434B5F47652B
:10471000744D6367457874436C6B46726571000035
:10472000434C4F434B5F4765744F7363304572434F
:104730006C6B467265710000434C4F434B5F47659D
:1047400074457233326B436C6B46726571000000C6
:104750008002DC020005B80580079508000A710B8D
:10476000434C4F434B5F476574506C6C30467265E9
:1047700071000000434C4F434B5F456E61626C65B6
:10478000506C6C3000000000434C4F434B5F53654E
:10479000745062654D6F646500000000434C4F43E8
:1047A0004B5F426F6F74546F5065654D6F64650069
:1047B000535049305F44726976657249525148617D
:1047C0006E646C6572000000535049315F44726939
:1047D00076657249525148616E646C6572000000E2
:1047E000535049325F44726976657249525148614B
:1047F0006E646C657200000045444D415F48616E17
:10480000646C65495251000043414E305F44726907
:1048100076657249525148616E646C6572000000A1
:104820005049545F476574496E7374616E636500E7
:104830005049545F496E697400000000493253309A
:104840005F54785F44726976657249525148616E6F
:10485000646C657200000000493253305F52785F2B
:1048600044726976657249525148616E646C657232
:1048700000000000534448435F4472697665724902
:10488000525148616E646C657200000000A00640E1
:1048900000B0064000C0064000D0064000A00E4018
:1048A00000B00E400A0034100B0034100C0034101D
:1048B0000D0034100A0028100B00281055415254E6
:1048C0005F476574496E7374616E63650000000034
:1048D000554152545F496E6974000000554152546D
:1048E0005F47657444656661756C74436F6E666995
:1048F00067000000554152545F52656164426C6F1D
:10490000636B696E67000000430000000C00FF1F2E
:10491000F8B500BFF8BC08BC9E467047F8B500BFAC
:08492000F8BC08BC9E4670477C
:084928003CBBFF7F0100000011
:04493000350400004A
:04493400110400006A
:10493800000040010080000000093D000000000068
:10494800000000000000000000000000000000005F
:1049580000000000000000000000000008490000FE
:10496800000000000000000000000000000000003F
:10497800000000000000000000000000000000002F
:10498800000000000000000000000000000000001F
:10499800000000000000000000000000000000000F
:0400000300000A856A
:00000001FF
